{
  "contractName": "GameItem",
  "abi": [
    {
      "inputs": [],
      "stateMutability": "nonpayable",
      "type": "constructor"
    },
    {
      "anonymous": false,
      "inputs": [
        {
          "indexed": true,
          "internalType": "address",
          "name": "account",
          "type": "address"
        },
        {
          "indexed": true,
          "internalType": "address",
          "name": "operator",
          "type": "address"
        },
        {
          "indexed": false,
          "internalType": "bool",
          "name": "approved",
          "type": "bool"
        }
      ],
      "name": "ApprovalForAll",
      "type": "event"
    },
    {
      "anonymous": false,
      "inputs": [
        {
          "indexed": true,
          "internalType": "address",
          "name": "operator",
          "type": "address"
        },
        {
          "indexed": true,
          "internalType": "address",
          "name": "from",
          "type": "address"
        },
        {
          "indexed": true,
          "internalType": "address",
          "name": "to",
          "type": "address"
        },
        {
          "indexed": false,
          "internalType": "uint256[]",
          "name": "ids",
          "type": "uint256[]"
        },
        {
          "indexed": false,
          "internalType": "uint256[]",
          "name": "values",
          "type": "uint256[]"
        }
      ],
      "name": "TransferBatch",
      "type": "event"
    },
    {
      "anonymous": false,
      "inputs": [
        {
          "indexed": true,
          "internalType": "address",
          "name": "operator",
          "type": "address"
        },
        {
          "indexed": true,
          "internalType": "address",
          "name": "from",
          "type": "address"
        },
        {
          "indexed": true,
          "internalType": "address",
          "name": "to",
          "type": "address"
        },
        {
          "indexed": false,
          "internalType": "uint256",
          "name": "id",
          "type": "uint256"
        },
        {
          "indexed": false,
          "internalType": "uint256",
          "name": "value",
          "type": "uint256"
        }
      ],
      "name": "TransferSingle",
      "type": "event"
    },
    {
      "anonymous": false,
      "inputs": [
        {
          "indexed": false,
          "internalType": "string",
          "name": "value",
          "type": "string"
        },
        {
          "indexed": true,
          "internalType": "uint256",
          "name": "id",
          "type": "uint256"
        }
      ],
      "name": "URI",
      "type": "event"
    },
    {
      "inputs": [],
      "name": "Blue",
      "outputs": [
        {
          "internalType": "uint256",
          "name": "",
          "type": "uint256"
        }
      ],
      "stateMutability": "view",
      "type": "function",
      "constant": true
    },
    {
      "inputs": [],
      "name": "Green",
      "outputs": [
        {
          "internalType": "uint256",
          "name": "",
          "type": "uint256"
        }
      ],
      "stateMutability": "view",
      "type": "function",
      "constant": true
    },
    {
      "inputs": [],
      "name": "Navy",
      "outputs": [
        {
          "internalType": "uint256",
          "name": "",
          "type": "uint256"
        }
      ],
      "stateMutability": "view",
      "type": "function",
      "constant": true
    },
    {
      "inputs": [],
      "name": "Orange",
      "outputs": [
        {
          "internalType": "uint256",
          "name": "",
          "type": "uint256"
        }
      ],
      "stateMutability": "view",
      "type": "function",
      "constant": true
    },
    {
      "inputs": [],
      "name": "Purple",
      "outputs": [
        {
          "internalType": "uint256",
          "name": "",
          "type": "uint256"
        }
      ],
      "stateMutability": "view",
      "type": "function",
      "constant": true
    },
    {
      "inputs": [],
      "name": "Red",
      "outputs": [
        {
          "internalType": "uint256",
          "name": "",
          "type": "uint256"
        }
      ],
      "stateMutability": "view",
      "type": "function",
      "constant": true
    },
    {
      "inputs": [],
      "name": "Yellow",
      "outputs": [
        {
          "internalType": "uint256",
          "name": "",
          "type": "uint256"
        }
      ],
      "stateMutability": "view",
      "type": "function",
      "constant": true
    },
    {
      "inputs": [
        {
          "internalType": "address",
          "name": "account",
          "type": "address"
        },
        {
          "internalType": "uint256",
          "name": "id",
          "type": "uint256"
        }
      ],
      "name": "balanceOf",
      "outputs": [
        {
          "internalType": "uint256",
          "name": "",
          "type": "uint256"
        }
      ],
      "stateMutability": "view",
      "type": "function",
      "constant": true
    },
    {
      "inputs": [
        {
          "internalType": "address[]",
          "name": "accounts",
          "type": "address[]"
        },
        {
          "internalType": "uint256[]",
          "name": "ids",
          "type": "uint256[]"
        }
      ],
      "name": "balanceOfBatch",
      "outputs": [
        {
          "internalType": "uint256[]",
          "name": "",
          "type": "uint256[]"
        }
      ],
      "stateMutability": "view",
      "type": "function",
      "constant": true
    },
    {
      "inputs": [
        {
          "internalType": "address",
          "name": "account",
          "type": "address"
        },
        {
          "internalType": "address",
          "name": "operator",
          "type": "address"
        }
      ],
      "name": "isApprovedForAll",
      "outputs": [
        {
          "internalType": "bool",
          "name": "",
          "type": "bool"
        }
      ],
      "stateMutability": "view",
      "type": "function",
      "constant": true
    },
    {
      "inputs": [
        {
          "internalType": "address",
          "name": "from",
          "type": "address"
        },
        {
          "internalType": "address",
          "name": "to",
          "type": "address"
        },
        {
          "internalType": "uint256[]",
          "name": "ids",
          "type": "uint256[]"
        },
        {
          "internalType": "uint256[]",
          "name": "amounts",
          "type": "uint256[]"
        },
        {
          "internalType": "bytes",
          "name": "data",
          "type": "bytes"
        }
      ],
      "name": "safeBatchTransferFrom",
      "outputs": [],
      "stateMutability": "nonpayable",
      "type": "function"
    },
    {
      "inputs": [
        {
          "internalType": "address",
          "name": "from",
          "type": "address"
        },
        {
          "internalType": "address",
          "name": "to",
          "type": "address"
        },
        {
          "internalType": "uint256",
          "name": "id",
          "type": "uint256"
        },
        {
          "internalType": "uint256",
          "name": "amount",
          "type": "uint256"
        },
        {
          "internalType": "bytes",
          "name": "data",
          "type": "bytes"
        }
      ],
      "name": "safeTransferFrom",
      "outputs": [],
      "stateMutability": "nonpayable",
      "type": "function"
    },
    {
      "inputs": [
        {
          "internalType": "address",
          "name": "operator",
          "type": "address"
        },
        {
          "internalType": "bool",
          "name": "approved",
          "type": "bool"
        }
      ],
      "name": "setApprovalForAll",
      "outputs": [],
      "stateMutability": "nonpayable",
      "type": "function"
    },
    {
      "inputs": [
        {
          "internalType": "bytes4",
          "name": "interfaceId",
          "type": "bytes4"
        }
      ],
      "name": "supportsInterface",
      "outputs": [
        {
          "internalType": "bool",
          "name": "",
          "type": "bool"
        }
      ],
      "stateMutability": "view",
      "type": "function",
      "constant": true
    },
    {
      "inputs": [
        {
          "internalType": "uint256",
          "name": "_tokenid",
          "type": "uint256"
        }
      ],
      "name": "uri",
      "outputs": [
        {
          "internalType": "string",
          "name": "",
          "type": "string"
        }
      ],
      "stateMutability": "pure",
      "type": "function",
      "constant": true
    }
  ],
  "bytecode": "0x60806040523480156200001157600080fd5b506040518060800160405280605a815260200162003750605a91396200003d816200014660201b60201c565b506200006233600180604051806020016040528060008152506200016260201b60201c565b620000873360026001604051806020016040528060008152506200016260201b60201c565b620000ac3360036001604051806020016040528060008152506200016260201b60201c565b620000d13360046001604051806020016040528060008152506200016260201b60201c565b620000f63360056001604051806020016040528060008152506200016260201b60201c565b6200011b3360066001604051806020016040528060008152506200016260201b60201c565b620001403360076001604051806020016040528060008152506200016260201b60201c565b62000d7b565b80600290805190602001906200015e929190620005fe565b5050565b600073ffffffffffffffffffffffffffffffffffffffff168473ffffffffffffffffffffffffffffffffffffffff1603620001d4576040517f08c379a0000000000000000000000000000000000000000000000000000000008152600401620001cb9062000735565b60405180910390fd5b6000620001e66200034960201b60201c565b90506000620001fb856200035160201b60201c565b9050600062000210856200035160201b60201c565b90506200022983600089858589620003d260201b60201c565b8460008088815260200190815260200160002060008973ffffffffffffffffffffffffffffffffffffffff1673ffffffffffffffffffffffffffffffffffffffff16815260200190815260200160002060008282546200028a919062000790565b925050819055508673ffffffffffffffffffffffffffffffffffffffff16600073ffffffffffffffffffffffffffffffffffffffff168473ffffffffffffffffffffffffffffffffffffffff167fc3d58168c5ae7397731d063d5bbf3d657854427343f4c083240f7aacaa2d0f6289896040516200030a929190620007fe565b60405180910390a46200032983600089858589620003da60201b60201c565b6200034083600089898989620003e260201b60201c565b50505050505050565b600033905090565b60606000600167ffffffffffffffff8111156200037357620003726200082b565b5b604051908082528060200260200182016040528015620003a25781602001602082028036833780820191505090505b5090508281600081518110620003bd57620003bc6200085a565b5b60200260200101818152505080915050919050565b505050505050565b505050505050565b6200040e8473ffffffffffffffffffffffffffffffffffffffff16620005db60201b620008121760201c565b15620005d3578373ffffffffffffffffffffffffffffffffffffffff1663f23a6e6187878686866040518663ffffffff1660e01b81526004016200045795949392919062000972565b6020604051808303816000875af19250505080156200049657506040513d601f19601f8201168201806040525081019062000493919062000a42565b60015b6200054757620004a562000a81565b806308c379a003620005085750620004bc62000adc565b80620004c957506200050a565b806040517f08c379a0000000000000000000000000000000000000000000000000000000008152600401620004ff919062000bc3565b60405180910390fd5b505b6040517f08c379a00000000000000000000000000000000000000000000000000000000081526004016200053e9062000c5d565b60405180910390fd5b63f23a6e6160e01b7bffffffffffffffffffffffffffffffffffffffffffffffffffffffff1916817bffffffffffffffffffffffffffffffffffffffffffffffffffffffff191614620005d1576040517f08c379a0000000000000000000000000000000000000000000000000000000008152600401620005c89062000cf5565b60405180910390fd5b505b505050505050565b6000808273ffffffffffffffffffffffffffffffffffffffff163b119050919050565b8280546200060c9062000d46565b90600052602060002090601f0160209004810192826200063057600085556200067c565b82601f106200064b57805160ff19168380011785556200067c565b828001600101855582156200067c579182015b828111156200067b5782518255916020019190600101906200065e565b5b5090506200068b91906200068f565b5090565b5b80821115620006aa57600081600090555060010162000690565b5090565b600082825260208201905092915050565b7f455243313135353a206d696e7420746f20746865207a65726f2061646472657360008201527f7300000000000000000000000000000000000000000000000000000000000000602082015250565b60006200071d602183620006ae565b91506200072a82620006bf565b604082019050919050565b6000602082019050818103600083015262000750816200070e565b9050919050565b6000819050919050565b7f4e487b7100000000000000000000000000000000000000000000000000000000600052601160045260246000fd5b60006200079d8262000757565b9150620007aa8362000757565b9250827fffffffffffffffffffffffffffffffffffffffffffffffffffffffffffffffff03821115620007e257620007e162000761565b5b828201905092915050565b620007f88162000757565b82525050565b6000604082019050620008156000830185620007ed565b620008246020830184620007ed565b9392505050565b7f4e487b7100000000000000000000000000000000000000000000000000000000600052604160045260246000fd5b7f4e487b7100000000000000000000000000000000000000000000000000000000600052603260045260246000fd5b600073ffffffffffffffffffffffffffffffffffffffff82169050919050565b6000620008b68262000889565b9050919050565b620008c881620008a9565b82525050565b600081519050919050565b600082825260208201905092915050565b60005b838110156200090a578082015181840152602081019050620008ed565b838111156200091a576000848401525b50505050565b6000601f19601f8301169050919050565b60006200093e82620008ce565b6200094a8185620008d9565b93506200095c818560208601620008ea565b620009678162000920565b840191505092915050565b600060a082019050620009896000830188620008bd565b620009986020830187620008bd565b620009a76040830186620007ed565b620009b66060830185620007ed565b8181036080830152620009ca818462000931565b90509695505050505050565b6000604051905090565b600080fd5b60007fffffffff0000000000000000000000000000000000000000000000000000000082169050919050565b62000a1c81620009e5565b811462000a2857600080fd5b50565b60008151905062000a3c8162000a11565b92915050565b60006020828403121562000a5b5762000a5a620009e0565b5b600062000a6b8482850162000a2b565b91505092915050565b60008160e01c9050919050565b600060033d111562000aa35760046000803e62000aa060005162000a74565b90505b90565b62000ab18262000920565b810181811067ffffffffffffffff8211171562000ad35762000ad26200082b565b5b80604052505050565b600060443d1062000b745762000af1620009d6565b60043d036004823e80513d602482011167ffffffffffffffff8211171562000b1b57505062000b74565b808201805167ffffffffffffffff81111562000b3b575050505062000b74565b80602083010160043d03850181111562000b5a57505050505062000b74565b62000b6b8260200185018662000aa6565b82955050505050505b90565b600081519050919050565b600062000b8f8262000b77565b62000b9b8185620006ae565b935062000bad818560208601620008ea565b62000bb88162000920565b840191505092915050565b6000602082019050818103600083015262000bdf818462000b82565b905092915050565b7f455243313135353a207472616e7366657220746f206e6f6e204552433131353560008201527f526563656976657220696d706c656d656e746572000000000000000000000000602082015250565b600062000c45603483620006ae565b915062000c528262000be7565b604082019050919050565b6000602082019050818103600083015262000c788162000c36565b9050919050565b7f455243313135353a204552433131353552656365697665722072656a6563746560008201527f6420746f6b656e73000000000000000000000000000000000000000000000000602082015250565b600062000cdd602883620006ae565b915062000cea8262000c7f565b604082019050919050565b6000602082019050818103600083015262000d108162000cce565b9050919050565b7f4e487b7100000000000000000000000000000000000000000000000000000000600052602260045260246000fd5b6000600282049050600182168062000d5f57607f821691505b60208210810362000d755762000d7462000d17565b5b50919050565b6129c58062000d8b6000396000f3fe608060405234801561001057600080fd5b50600436106100f45760003560e01c806366504c1211610097578063e985e9c511610066578063e985e9c514610287578063f242432a146102b7578063f5cf12fc146102d3578063fbc867f0146102f1576100f4565b806366504c1214610211578063a22cb4651461022f578063bf87d6bf1461024b578063cd59c6d514610269576100f4565b806310d19aa9116100d357806310d19aa9146101895780632eb2c2d6146101a757806342fa98e0146101c35780634e1273f4146101e1576100f4565b8062fdd58e146100f957806301ffc9a7146101295780630e89341c14610159575b600080fd5b610113600480360381019061010e919061160f565b61030f565b604051610120919061165e565b60405180910390f35b610143600480360381019061013e91906116d1565b6103d7565b6040516101509190611719565b60405180910390f35b610173600480360381019061016e9190611734565b6104b9565b60405161018091906117fa565b60405180910390f35b6101916104ea565b60405161019e919061165e565b60405180910390f35b6101c160048036038101906101bc9190611a19565b6104ef565b005b6101cb610590565b6040516101d8919061165e565b60405180910390f35b6101fb60048036038101906101f69190611bab565b610595565b6040516102089190611ce1565b60405180910390f35b6102196106ae565b604051610226919061165e565b60405180910390f35b61024960048036038101906102449190611d2f565b6106b3565b005b6102536106c9565b604051610260919061165e565b60405180910390f35b6102716106ce565b60405161027e919061165e565b60405180910390f35b6102a1600480360381019061029c9190611d6f565b6106d3565b6040516102ae9190611719565b60405180910390f35b6102d160048036038101906102cc9190611daf565b610767565b005b6102db610808565b6040516102e8919061165e565b60405180910390f35b6102f961080d565b604051610306919061165e565b60405180910390f35b60008073ffffffffffffffffffffffffffffffffffffffff168373ffffffffffffffffffffffffffffffffffffffff160361037f576040517f08c379a000000000000000000000000000000000000000000000000000000000815260040161037690611eb8565b60405180910390fd5b60008083815260200190815260200160002060008473ffffffffffffffffffffffffffffffffffffffff1673ffffffffffffffffffffffffffffffffffffffff16815260200190815260200160002054905092915050565b60007fd9b67a26000000000000000000000000000000000000000000000000000000007bffffffffffffffffffffffffffffffffffffffffffffffffffffffff1916827bffffffffffffffffffffffffffffffffffffffffffffffffffffffff191614806104a257507f0e89341c000000000000000000000000000000000000000000000000000000007bffffffffffffffffffffffffffffffffffffffffffffffffffffffff1916827bffffffffffffffffffffffffffffffffffffffffffffffffffffffff1916145b806104b257506104b182610835565b5b9050919050565b60606104c48261089f565b6040516020016104d49190611ff8565b6040516020818303038152906040529050919050565b600781565b6104f76109ff565b73ffffffffffffffffffffffffffffffffffffffff168573ffffffffffffffffffffffffffffffffffffffff16148061053d575061053c856105376109ff565b6106d3565b5b61057c576040517f08c379a000000000000000000000000000000000000000000000000000000000815260040161057390612097565b60405180910390fd5b6105898585858585610a07565b5050505050565b600281565b606081518351146105db576040517f08c379a00000000000000000000000000000000000000000000000000000000081526004016105d290612129565b60405180910390fd5b6000835167ffffffffffffffff8111156105f8576105f7611821565b5b6040519080825280602002602001820160405280156106265781602001602082028036833780820191505090505b50905060005b84518110156106a35761067385828151811061064b5761064a612149565b5b602002602001015185838151811061066657610665612149565b5b602002602001015161030f565b82828151811061068657610685612149565b5b6020026020010181815250508061069c906121a7565b905061062c565b508091505092915050565b600581565b6106c56106be6109ff565b8383610d28565b5050565b600181565b600481565b6000600160008473ffffffffffffffffffffffffffffffffffffffff1673ffffffffffffffffffffffffffffffffffffffff16815260200190815260200160002060008373ffffffffffffffffffffffffffffffffffffffff1673ffffffffffffffffffffffffffffffffffffffff16815260200190815260200160002060009054906101000a900460ff16905092915050565b61076f6109ff565b73ffffffffffffffffffffffffffffffffffffffff168573ffffffffffffffffffffffffffffffffffffffff1614806107b557506107b4856107af6109ff565b6106d3565b5b6107f4576040517f08c379a00000000000000000000000000000000000000000000000000000000081526004016107eb90612261565b60405180910390fd5b6108018585858585610e94565b5050505050565b600681565b600381565b6000808273ffffffffffffffffffffffffffffffffffffffff163b119050919050565b60007f01ffc9a7000000000000000000000000000000000000000000000000000000007bffffffffffffffffffffffffffffffffffffffffffffffffffffffff1916827bffffffffffffffffffffffffffffffffffffffffffffffffffffffff1916149050919050565b6060600082036108e6576040518060400160405280600181526020017f300000000000000000000000000000000000000000000000000000000000000081525090506109fa565b600082905060005b60008214610918578080610901906121a7565b915050600a8261091191906122b0565b91506108ee565b60008167ffffffffffffffff81111561093457610933611821565b5b6040519080825280601f01601f1916602001820160405280156109665781602001600182028036833780820191505090505b5090505b600085146109f35760018261097f91906122e1565b9150600a8561098e9190612315565b603061099a9190612346565b60f81b8183815181106109b0576109af612149565b5b60200101907effffffffffffffffffffffffffffffffffffffffffffffffffffffffffffff1916908160001a905350600a856109ec91906122b0565b945061096a565b8093505050505b919050565b600033905090565b8151835114610a4b576040517f08c379a0000000000000000000000000000000000000000000000000000000008152600401610a429061240e565b60405180910390fd5b600073ffffffffffffffffffffffffffffffffffffffff168473ffffffffffffffffffffffffffffffffffffffff1603610aba576040517f08c379a0000000000000000000000000000000000000000000000000000000008152600401610ab1906124a0565b60405180910390fd5b6000610ac46109ff565b9050610ad481878787878761112f565b60005b8451811015610c85576000858281518110610af557610af4612149565b5b602002602001015190506000858381518110610b1457610b13612149565b5b60200260200101519050600080600084815260200190815260200160002060008b73ffffffffffffffffffffffffffffffffffffffff1673ffffffffffffffffffffffffffffffffffffffff16815260200190815260200160002054905081811015610bb5576040517f08c379a0000000000000000000000000000000000000000000000000000000008152600401610bac90612532565b60405180910390fd5b81810360008085815260200190815260200160002060008c73ffffffffffffffffffffffffffffffffffffffff1673ffffffffffffffffffffffffffffffffffffffff168152602001908152602001600020819055508160008085815260200190815260200160002060008b73ffffffffffffffffffffffffffffffffffffffff1673ffffffffffffffffffffffffffffffffffffffff1681526020019081526020016000206000828254610c6a9190612346565b9250508190555050505080610c7e906121a7565b9050610ad7565b508473ffffffffffffffffffffffffffffffffffffffff168673ffffffffffffffffffffffffffffffffffffffff168273ffffffffffffffffffffffffffffffffffffffff167f4a39dc06d4c0dbc64b70af90fd698a233a518aa5d07e595d983b8c0526c8f7fb8787604051610cfc929190612552565b60405180910390a4610d12818787878787611137565b610d2081878787878761113f565b505050505050565b8173ffffffffffffffffffffffffffffffffffffffff168373ffffffffffffffffffffffffffffffffffffffff1603610d96576040517f08c379a0000000000000000000000000000000000000000000000000000000008152600401610d8d906125fb565b60405180910390fd5b80600160008573ffffffffffffffffffffffffffffffffffffffff1673ffffffffffffffffffffffffffffffffffffffff16815260200190815260200160002060008473ffffffffffffffffffffffffffffffffffffffff1673ffffffffffffffffffffffffffffffffffffffff16815260200190815260200160002060006101000a81548160ff0219169083151502179055508173ffffffffffffffffffffffffffffffffffffffff168373ffffffffffffffffffffffffffffffffffffffff167f17307eab39ab6107e8899845ad3d59bd9653f200f220920489ca2b5937696c3183604051610e879190611719565b60405180910390a3505050565b600073ffffffffffffffffffffffffffffffffffffffff168473ffffffffffffffffffffffffffffffffffffffff1603610f03576040517f08c379a0000000000000000000000000000000000000000000000000000000008152600401610efa906124a0565b60405180910390fd5b6000610f0d6109ff565b90506000610f1a85611316565b90506000610f2785611316565b9050610f3783898985858961112f565b600080600088815260200190815260200160002060008a73ffffffffffffffffffffffffffffffffffffffff1673ffffffffffffffffffffffffffffffffffffffff16815260200190815260200160002054905085811015610fce576040517f08c379a0000000000000000000000000000000000000000000000000000000008152600401610fc590612532565b60405180910390fd5b85810360008089815260200190815260200160002060008b73ffffffffffffffffffffffffffffffffffffffff1673ffffffffffffffffffffffffffffffffffffffff168152602001908152602001600020819055508560008089815260200190815260200160002060008a73ffffffffffffffffffffffffffffffffffffffff1673ffffffffffffffffffffffffffffffffffffffff16815260200190815260200160002060008282546110839190612346565b925050819055508773ffffffffffffffffffffffffffffffffffffffff168973ffffffffffffffffffffffffffffffffffffffff168573ffffffffffffffffffffffffffffffffffffffff167fc3d58168c5ae7397731d063d5bbf3d657854427343f4c083240f7aacaa2d0f628a8a60405161110092919061261b565b60405180910390a4611116848a8a86868a611137565b611124848a8a8a8a8a611390565b505050505050505050565b505050505050565b505050505050565b61115e8473ffffffffffffffffffffffffffffffffffffffff16610812565b1561130e578373ffffffffffffffffffffffffffffffffffffffff1663bc197c8187878686866040518663ffffffff1660e01b81526004016111a49594939291906126a8565b6020604051808303816000875af19250505080156111e057506040513d601f19601f820116820180604052508101906111dd9190612725565b60015b611285576111ec61275f565b806308c379a0036112485750611200612781565b8061120b575061124a565b806040517f08c379a000000000000000000000000000000000000000000000000000000000815260040161123f91906117fa565b60405180910390fd5b505b6040517f08c379a000000000000000000000000000000000000000000000000000000000815260040161127c90612883565b60405180910390fd5b63bc197c8160e01b7bffffffffffffffffffffffffffffffffffffffffffffffffffffffff1916817bffffffffffffffffffffffffffffffffffffffffffffffffffffffff19161461130c576040517f08c379a000000000000000000000000000000000000000000000000000000000815260040161130390612915565b60405180910390fd5b505b505050505050565b60606000600167ffffffffffffffff81111561133557611334611821565b5b6040519080825280602002602001820160405280156113635781602001602082028036833780820191505090505b509050828160008151811061137b5761137a612149565b5b60200260200101818152505080915050919050565b6113af8473ffffffffffffffffffffffffffffffffffffffff16610812565b1561155f578373ffffffffffffffffffffffffffffffffffffffff1663f23a6e6187878686866040518663ffffffff1660e01b81526004016113f5959493929190612935565b6020604051808303816000875af192505050801561143157506040513d601f19601f8201168201806040525081019061142e9190612725565b60015b6114d65761143d61275f565b806308c379a0036114995750611451612781565b8061145c575061149b565b806040517f08c379a000000000000000000000000000000000000000000000000000000000815260040161149091906117fa565b60405180910390fd5b505b6040517f08c379a00000000000000000000000000000000000000000000000000000000081526004016114cd90612883565b60405180910390fd5b63f23a6e6160e01b7bffffffffffffffffffffffffffffffffffffffffffffffffffffffff1916817bffffffffffffffffffffffffffffffffffffffffffffffffffffffff19161461155d576040517f08c379a000000000000000000000000000000000000000000000000000000000815260040161155490612915565b60405180910390fd5b505b505050505050565b6000604051905090565b600080fd5b600080fd5b600073ffffffffffffffffffffffffffffffffffffffff82169050919050565b60006115a68261157b565b9050919050565b6115b68161159b565b81146115c157600080fd5b50565b6000813590506115d3816115ad565b92915050565b6000819050919050565b6115ec816115d9565b81146115f757600080fd5b50565b600081359050611609816115e3565b92915050565b6000806040838503121561162657611625611571565b5b6000611634858286016115c4565b9250506020611645858286016115fa565b9150509250929050565b611658816115d9565b82525050565b6000602082019050611673600083018461164f565b92915050565b60007fffffffff0000000000000000000000000000000000000000000000000000000082169050919050565b6116ae81611679565b81146116b957600080fd5b50565b6000813590506116cb816116a5565b92915050565b6000602082840312156116e7576116e6611571565b5b60006116f5848285016116bc565b91505092915050565b60008115159050919050565b611713816116fe565b82525050565b600060208201905061172e600083018461170a565b92915050565b60006020828403121561174a57611749611571565b5b6000611758848285016115fa565b91505092915050565b600081519050919050565b600082825260208201905092915050565b60005b8381101561179b578082015181840152602081019050611780565b838111156117aa576000848401525b50505050565b6000601f19601f8301169050919050565b60006117cc82611761565b6117d6818561176c565b93506117e681856020860161177d565b6117ef816117b0565b840191505092915050565b6000602082019050818103600083015261181481846117c1565b905092915050565b600080fd5b7f4e487b7100000000000000000000000000000000000000000000000000000000600052604160045260246000fd5b611859826117b0565b810181811067ffffffffffffffff8211171561187857611877611821565b5b80604052505050565b600061188b611567565b90506118978282611850565b919050565b600067ffffffffffffffff8211156118b7576118b6611821565b5b602082029050602081019050919050565b600080fd5b60006118e06118db8461189c565b611881565b90508083825260208201905060208402830185811115611903576119026118c8565b5b835b8181101561192c578061191888826115fa565b845260208401935050602081019050611905565b5050509392505050565b600082601f83011261194b5761194a61181c565b5b813561195b8482602086016118cd565b91505092915050565b600080fd5b600067ffffffffffffffff82111561198457611983611821565b5b61198d826117b0565b9050602081019050919050565b82818337600083830152505050565b60006119bc6119b784611969565b611881565b9050828152602081018484840111156119d8576119d7611964565b5b6119e384828561199a565b509392505050565b600082601f830112611a00576119ff61181c565b5b8135611a108482602086016119a9565b91505092915050565b600080600080600060a08688031215611a3557611a34611571565b5b6000611a43888289016115c4565b9550506020611a54888289016115c4565b945050604086013567ffffffffffffffff811115611a7557611a74611576565b5b611a8188828901611936565b935050606086013567ffffffffffffffff811115611aa257611aa1611576565b5b611aae88828901611936565b925050608086013567ffffffffffffffff811115611acf57611ace611576565b5b611adb888289016119eb565b9150509295509295909350565b600067ffffffffffffffff821115611b0357611b02611821565b5b602082029050602081019050919050565b6000611b27611b2284611ae8565b611881565b90508083825260208201905060208402830185811115611b4a57611b496118c8565b5b835b81811015611b735780611b5f88826115c4565b845260208401935050602081019050611b4c565b5050509392505050565b600082601f830112611b9257611b9161181c565b5b8135611ba2848260208601611b14565b91505092915050565b60008060408385031215611bc257611bc1611571565b5b600083013567ffffffffffffffff811115611be057611bdf611576565b5b611bec85828601611b7d565b925050602083013567ffffffffffffffff811115611c0d57611c0c611576565b5b611c1985828601611936565b9150509250929050565b600081519050919050565b600082825260208201905092915050565b6000819050602082019050919050565b611c58816115d9565b82525050565b6000611c6a8383611c4f565b60208301905092915050565b6000602082019050919050565b6000611c8e82611c23565b611c988185611c2e565b9350611ca383611c3f565b8060005b83811015611cd4578151611cbb8882611c5e565b9750611cc683611c76565b925050600181019050611ca7565b5085935050505092915050565b60006020820190508181036000830152611cfb8184611c83565b905092915050565b611d0c816116fe565b8114611d1757600080fd5b50565b600081359050611d2981611d03565b92915050565b60008060408385031215611d4657611d45611571565b5b6000611d54858286016115c4565b9250506020611d6585828601611d1a565b9150509250929050565b60008060408385031215611d8657611d85611571565b5b6000611d94858286016115c4565b9250506020611da5858286016115c4565b9150509250929050565b600080600080600060a08688031215611dcb57611dca611571565b5b6000611dd9888289016115c4565b9550506020611dea888289016115c4565b9450506040611dfb888289016115fa565b9350506060611e0c888289016115fa565b925050608086013567ffffffffffffffff811115611e2d57611e2c611576565b5b611e39888289016119eb565b9150509295509295909350565b7f455243313135353a2062616c616e636520717565727920666f7220746865207a60008201527f65726f2061646472657373000000000000000000000000000000000000000000602082015250565b6000611ea2602b8361176c565b9150611ead82611e46565b604082019050919050565b60006020820190508181036000830152611ed181611e95565b9050919050565b600081905092915050565b7f68747470733a2f2f697066732e696f2f697066732f62616679626569686d663660008201527f6e64656a7861766c373536716d61637a6a7a707962727573376469753436366660208201527f6c78736a6e6876783334777a6b6365712f000000000000000000000000000000604082015250565b6000611f65605183611ed8565b9150611f7082611ee3565b605182019050919050565b6000611f8682611761565b611f908185611ed8565b9350611fa081856020860161177d565b80840191505092915050565b7f2e6a736f6e000000000000000000000000000000000000000000000000000000600082015250565b6000611fe2600583611ed8565b9150611fed82611fac565b600582019050919050565b600061200382611f58565b915061200f8284611f7b565b915061201a82611fd5565b915081905092915050565b7f455243313135353a207472616e736665722063616c6c6572206973206e6f742060008201527f6f776e6572206e6f7220617070726f7665640000000000000000000000000000602082015250565b600061208160328361176c565b915061208c82612025565b604082019050919050565b600060208201905081810360008301526120b081612074565b9050919050565b7f455243313135353a206163636f756e747320616e6420696473206c656e67746860008201527f206d69736d617463680000000000000000000000000000000000000000000000602082015250565b600061211360298361176c565b915061211e826120b7565b604082019050919050565b6000602082019050818103600083015261214281612106565b9050919050565b7f4e487b7100000000000000000000000000000000000000000000000000000000600052603260045260246000fd5b7f4e487b7100000000000000000000000000000000000000000000000000000000600052601160045260246000fd5b60006121b2826115d9565b91507fffffffffffffffffffffffffffffffffffffffffffffffffffffffffffffffff82036121e4576121e3612178565b5b600182019050919050565b7f455243313135353a2063616c6c6572206973206e6f74206f776e6572206e6f7260008201527f20617070726f7665640000000000000000000000000000000000000000000000602082015250565b600061224b60298361176c565b9150612256826121ef565b604082019050919050565b6000602082019050818103600083015261227a8161223e565b9050919050565b7f4e487b7100000000000000000000000000000000000000000000000000000000600052601260045260246000fd5b60006122bb826115d9565b91506122c6836115d9565b9250826122d6576122d5612281565b5b828204905092915050565b60006122ec826115d9565b91506122f7836115d9565b92508282101561230a57612309612178565b5b828203905092915050565b6000612320826115d9565b915061232b836115d9565b92508261233b5761233a612281565b5b828206905092915050565b6000612351826115d9565b915061235c836115d9565b9250827fffffffffffffffffffffffffffffffffffffffffffffffffffffffffffffffff0382111561239157612390612178565b5b828201905092915050565b7f455243313135353a2069647320616e6420616d6f756e7473206c656e6774682060008201527f6d69736d61746368000000000000000000000000000000000000000000000000602082015250565b60006123f860288361176c565b91506124038261239c565b604082019050919050565b60006020820190508181036000830152612427816123eb565b9050919050565b7f455243313135353a207472616e7366657220746f20746865207a65726f20616460008201527f6472657373000000000000000000000000000000000000000000000000000000602082015250565b600061248a60258361176c565b91506124958261242e565b604082019050919050565b600060208201905081810360008301526124b98161247d565b9050919050565b7f455243313135353a20696e73756666696369656e742062616c616e636520666f60008201527f72207472616e7366657200000000000000000000000000000000000000000000602082015250565b600061251c602a8361176c565b9150612527826124c0565b604082019050919050565b6000602082019050818103600083015261254b8161250f565b9050919050565b6000604082019050818103600083015261256c8185611c83565b905081810360208301526125808184611c83565b90509392505050565b7f455243313135353a2073657474696e6720617070726f76616c2073746174757360008201527f20666f722073656c660000000000000000000000000000000000000000000000602082015250565b60006125e560298361176c565b91506125f082612589565b604082019050919050565b60006020820190508181036000830152612614816125d8565b9050919050565b6000604082019050612630600083018561164f565b61263d602083018461164f565b9392505050565b61264d8161159b565b82525050565b600081519050919050565b600082825260208201905092915050565b600061267a82612653565b612684818561265e565b935061269481856020860161177d565b61269d816117b0565b840191505092915050565b600060a0820190506126bd6000830188612644565b6126ca6020830187612644565b81810360408301526126dc8186611c83565b905081810360608301526126f08185611c83565b90508181036080830152612704818461266f565b90509695505050505050565b60008151905061271f816116a5565b92915050565b60006020828403121561273b5761273a611571565b5b600061274984828501612710565b91505092915050565b60008160e01c9050919050565b600060033d111561277e5760046000803e61277b600051612752565b90505b90565b600060443d1061280e57612793611567565b60043d036004823e80513d602482011167ffffffffffffffff821117156127bb57505061280e565b808201805167ffffffffffffffff8111156127d9575050505061280e565b80602083010160043d0385018111156127f657505050505061280e565b61280582602001850186611850565b82955050505050505b90565b7f455243313135353a207472616e7366657220746f206e6f6e204552433131353560008201527f526563656976657220696d706c656d656e746572000000000000000000000000602082015250565b600061286d60348361176c565b915061287882612811565b604082019050919050565b6000602082019050818103600083015261289c81612860565b9050919050565b7f455243313135353a204552433131353552656365697665722072656a6563746560008201527f6420746f6b656e73000000000000000000000000000000000000000000000000602082015250565b60006128ff60288361176c565b915061290a826128a3565b604082019050919050565b6000602082019050818103600083015261292e816128f2565b9050919050565b600060a08201905061294a6000830188612644565b6129576020830187612644565b612964604083018661164f565b612971606083018561164f565b8181036080830152612983818461266f565b9050969550505050505056fea264697066735822122050e3d7e1cc6c9c347cae2cfdadb4d5331a18f50ae3234d28c1be82d87814917364736f6c634300080e003368747470733a2f2f697066732e696f2f697066732f62616679626569686d66366e64656a7861766c373536716d61637a6a7a70796272757337646975343636666c78736a6e6876783334777a6b6365712f7b69647d2e6a736f6e",
  "immutableReferences": {},
  "source": "// SPDX-License-Identifier: MIT\npragma solidity ^0.8.0;\n\nimport \"@openzeppelin/contracts/token/ERC1155/ERC1155.sol\";\nimport \"@openzeppelin/contracts/utils/Strings.sol\";\n\ncontract GameItem is ERC1155 {\n    uint256 public constant Red = 1;\n    uint256 public constant Orange = 2;\n    uint256 public constant Yellow = 3;\n    uint256 public constant Green = 4;\n    uint256 public constant Blue = 5;\n    uint256 public constant Navy = 6;\n    uint256 public constant Purple = 7;\n\n    constructor() ERC1155(\"https://ipfs.io/ipfs/bafybeihmf6ndejxavl756qmaczjzpybrus7diu466flxsjnhvx34wzkceq/{id}.json\") {\n        _mint(msg.sender, Red, 1, \"\");\n        _mint(msg.sender, Orange, 1, \"\");\n        _mint(msg.sender, Yellow, 1, \"\");\n        _mint(msg.sender, Green, 1, \"\");\n        _mint(msg.sender, Blue, 1, \"\");\n        _mint(msg.sender, Navy, 1, \"\");\n        _mint(msg.sender, Purple, 1, \"\");\n    }\n\n    function uri(uint256 _tokenid) override public pure returns (string memory) {\n        return string(\n            abi.encodePacked(\n                \"https://ipfs.io/ipfs/bafybeihmf6ndejxavl756qmaczjzpybrus7diu466flxsjnhvx34wzkceq/\",\n                Strings.toString(_tokenid),\".json\"\n            )\n        );\n    }\n}",
  "sourcePath": "/Users/shinhyunsuk/blockchain/ethereum-tic-tac-toe/contracts/GameItem.sol",
  "compiler": {
    "name": "solc",
    "version": "0.8.14+commit.80d49f37.Emscripten.clang"
  },
  "schemaVersion": "3.4.7",
  "updatedAt": "2022-06-04T18:53:10.094Z",
  "networkType": "ethereum",
  "devdoc": {
    "kind": "dev",
    "methods": {
      "balanceOf(address,uint256)": {
        "details": "See {IERC1155-balanceOf}. Requirements: - `account` cannot be the zero address."
      },
      "balanceOfBatch(address[],uint256[])": {
        "details": "See {IERC1155-balanceOfBatch}. Requirements: - `accounts` and `ids` must have the same length."
      },
      "isApprovedForAll(address,address)": {
        "details": "See {IERC1155-isApprovedForAll}."
      },
      "safeBatchTransferFrom(address,address,uint256[],uint256[],bytes)": {
        "details": "See {IERC1155-safeBatchTransferFrom}."
      },
      "safeTransferFrom(address,address,uint256,uint256,bytes)": {
        "details": "See {IERC1155-safeTransferFrom}."
      },
      "setApprovalForAll(address,bool)": {
        "details": "See {IERC1155-setApprovalForAll}."
      },
      "supportsInterface(bytes4)": {
        "details": "See {IERC165-supportsInterface}."
      }
    },
    "version": 1
  },
  "userdoc": {
    "kind": "user",
    "methods": {},
    "version": 1
  }
}