{
  "contractName": "GameAddressList",
  "abi": [
    {
      "inputs": [],
      "stateMutability": "nonpayable",
      "type": "constructor"
    },
    {
      "anonymous": false,
      "inputs": [],
      "name": "gameAdded",
      "type": "event"
    },
    {
      "inputs": [
        {
          "internalType": "uint256",
          "name": "",
          "type": "uint256"
        }
      ],
      "name": "gameAddressList",
      "outputs": [
        {
          "internalType": "address",
          "name": "",
          "type": "address"
        }
      ],
      "stateMutability": "view",
      "type": "function",
      "constant": true
    },
    {
      "inputs": [],
      "name": "gameCount",
      "outputs": [
        {
          "internalType": "uint256",
          "name": "",
          "type": "uint256"
        }
      ],
      "stateMutability": "view",
      "type": "function",
      "constant": true
    },
    {
      "inputs": [
        {
          "internalType": "address",
          "name": "gameAddress",
          "type": "address"
        }
      ],
      "name": "addGame",
      "outputs": [],
      "stateMutability": "nonpayable",
      "type": "function"
    }
  ],
  "bytecode": "0x608060405234801561001057600080fd5b506000600181905550610393806100286000396000f3fe608060405234801561001057600080fd5b50600436106100415760003560e01c80634d1975b4146100465780638d84296914610064578063d72d04db14610094575b600080fd5b61004e6100b0565b60405161005b91906101b8565b60405180910390f35b61007e60048036038101906100799190610204565b6100b6565b60405161008b9190610272565b60405180910390f35b6100ae60048036038101906100a991906102b9565b6100f5565b005b60015481565b600081815481106100c657600080fd5b906000526020600020016000915054906101000a900473ffffffffffffffffffffffffffffffffffffffff1681565b6000819080600181540180825580915050600190039060005260206000200160009091909190916101000a81548173ffffffffffffffffffffffffffffffffffffffff021916908373ffffffffffffffffffffffffffffffffffffffff1602179055506001600081548092919061016b90610315565b91905055507fb830878c0e9654231fb721f04da7bb1b34ca78b47da739af0e8105ef7304830760405160405180910390a150565b6000819050919050565b6101b28161019f565b82525050565b60006020820190506101cd60008301846101a9565b92915050565b600080fd5b6101e18161019f565b81146101ec57600080fd5b50565b6000813590506101fe816101d8565b92915050565b60006020828403121561021a576102196101d3565b5b6000610228848285016101ef565b91505092915050565b600073ffffffffffffffffffffffffffffffffffffffff82169050919050565b600061025c82610231565b9050919050565b61026c81610251565b82525050565b60006020820190506102876000830184610263565b92915050565b61029681610251565b81146102a157600080fd5b50565b6000813590506102b38161028d565b92915050565b6000602082840312156102cf576102ce6101d3565b5b60006102dd848285016102a4565b91505092915050565b7f4e487b7100000000000000000000000000000000000000000000000000000000600052601160045260246000fd5b60006103208261019f565b91507fffffffffffffffffffffffffffffffffffffffffffffffffffffffffffffffff8203610352576103516102e6565b5b60018201905091905056fea26469706673582212207327b64c03cc707809e364e9327d23f21273da5b8286e5cb583957c68ecb1ef764736f6c634300080e0033",
  "immutableReferences": {},
  "source": "// SPDX-License-Identifier: MIT\npragma solidity ^0.8.0;\n\ncontract GameAddressList {\n    address[] public gameAddressList;\n    uint public gameCount;\n    \n    event gameAdded();\n\n    constructor() {\n        gameCount = 0;\n    }\n\n    function addGame(address gameAddress) public {\n        gameAddressList.push(gameAddress);\n        gameCount++;\n        emit gameAdded();\n    } \n\n}",
  "sourcePath": "/Users/shinhyunsuk/blockchain/ethereum-tic-tac-toe/contracts/GameAddressList.sol",
  "compiler": {
    "name": "solc",
    "version": "0.8.14+commit.80d49f37.Emscripten.clang"
  },
  "schemaVersion": "3.4.7",
  "updatedAt": "2022-06-05T06:11:14.021Z",
  "networkType": "ethereum",
  "devdoc": {
    "kind": "dev",
    "methods": {},
    "version": 1
  },
  "userdoc": {
    "kind": "user",
    "methods": {},
    "version": 1
  }
}