{
  "contractName": "GameItem",
  "abi": [
    {
      "inputs": [],
      "stateMutability": "nonpayable",
      "type": "constructor"
    },
    {
      "anonymous": false,
      "inputs": [
        {
          "indexed": true,
          "internalType": "address",
          "name": "account",
          "type": "address"
        },
        {
          "indexed": true,
          "internalType": "address",
          "name": "operator",
          "type": "address"
        },
        {
          "indexed": false,
          "internalType": "bool",
          "name": "approved",
          "type": "bool"
        }
      ],
      "name": "ApprovalForAll",
      "type": "event"
    },
    {
      "anonymous": false,
      "inputs": [
        {
          "indexed": true,
          "internalType": "address",
          "name": "operator",
          "type": "address"
        },
        {
          "indexed": true,
          "internalType": "address",
          "name": "from",
          "type": "address"
        },
        {
          "indexed": true,
          "internalType": "address",
          "name": "to",
          "type": "address"
        },
        {
          "indexed": false,
          "internalType": "uint256[]",
          "name": "ids",
          "type": "uint256[]"
        },
        {
          "indexed": false,
          "internalType": "uint256[]",
          "name": "values",
          "type": "uint256[]"
        }
      ],
      "name": "TransferBatch",
      "type": "event"
    },
    {
      "anonymous": false,
      "inputs": [
        {
          "indexed": true,
          "internalType": "address",
          "name": "operator",
          "type": "address"
        },
        {
          "indexed": true,
          "internalType": "address",
          "name": "from",
          "type": "address"
        },
        {
          "indexed": true,
          "internalType": "address",
          "name": "to",
          "type": "address"
        },
        {
          "indexed": false,
          "internalType": "uint256",
          "name": "id",
          "type": "uint256"
        },
        {
          "indexed": false,
          "internalType": "uint256",
          "name": "value",
          "type": "uint256"
        }
      ],
      "name": "TransferSingle",
      "type": "event"
    },
    {
      "anonymous": false,
      "inputs": [
        {
          "indexed": false,
          "internalType": "string",
          "name": "value",
          "type": "string"
        },
        {
          "indexed": true,
          "internalType": "uint256",
          "name": "id",
          "type": "uint256"
        }
      ],
      "name": "URI",
      "type": "event"
    },
    {
      "inputs": [],
      "name": "Blue",
      "outputs": [
        {
          "internalType": "uint256",
          "name": "",
          "type": "uint256"
        }
      ],
      "stateMutability": "view",
      "type": "function",
      "constant": true
    },
    {
      "inputs": [],
      "name": "Green",
      "outputs": [
        {
          "internalType": "uint256",
          "name": "",
          "type": "uint256"
        }
      ],
      "stateMutability": "view",
      "type": "function",
      "constant": true
    },
    {
      "inputs": [],
      "name": "Navy",
      "outputs": [
        {
          "internalType": "uint256",
          "name": "",
          "type": "uint256"
        }
      ],
      "stateMutability": "view",
      "type": "function",
      "constant": true
    },
    {
      "inputs": [],
      "name": "Orange",
      "outputs": [
        {
          "internalType": "uint256",
          "name": "",
          "type": "uint256"
        }
      ],
      "stateMutability": "view",
      "type": "function",
      "constant": true
    },
    {
      "inputs": [],
      "name": "Purple",
      "outputs": [
        {
          "internalType": "uint256",
          "name": "",
          "type": "uint256"
        }
      ],
      "stateMutability": "view",
      "type": "function",
      "constant": true
    },
    {
      "inputs": [],
      "name": "Red",
      "outputs": [
        {
          "internalType": "uint256",
          "name": "",
          "type": "uint256"
        }
      ],
      "stateMutability": "view",
      "type": "function",
      "constant": true
    },
    {
      "inputs": [],
      "name": "Yellow",
      "outputs": [
        {
          "internalType": "uint256",
          "name": "",
          "type": "uint256"
        }
      ],
      "stateMutability": "view",
      "type": "function",
      "constant": true
    },
    {
      "inputs": [
        {
          "internalType": "address",
          "name": "account",
          "type": "address"
        },
        {
          "internalType": "uint256",
          "name": "id",
          "type": "uint256"
        }
      ],
      "name": "balanceOf",
      "outputs": [
        {
          "internalType": "uint256",
          "name": "",
          "type": "uint256"
        }
      ],
      "stateMutability": "view",
      "type": "function",
      "constant": true
    },
    {
      "inputs": [
        {
          "internalType": "address[]",
          "name": "accounts",
          "type": "address[]"
        },
        {
          "internalType": "uint256[]",
          "name": "ids",
          "type": "uint256[]"
        }
      ],
      "name": "balanceOfBatch",
      "outputs": [
        {
          "internalType": "uint256[]",
          "name": "",
          "type": "uint256[]"
        }
      ],
      "stateMutability": "view",
      "type": "function",
      "constant": true
    },
    {
      "inputs": [
        {
          "internalType": "address",
          "name": "account",
          "type": "address"
        },
        {
          "internalType": "address",
          "name": "operator",
          "type": "address"
        }
      ],
      "name": "isApprovedForAll",
      "outputs": [
        {
          "internalType": "bool",
          "name": "",
          "type": "bool"
        }
      ],
      "stateMutability": "view",
      "type": "function",
      "constant": true
    },
    {
      "inputs": [],
      "name": "mintRate",
      "outputs": [
        {
          "internalType": "uint256",
          "name": "",
          "type": "uint256"
        }
      ],
      "stateMutability": "view",
      "type": "function",
      "constant": true
    },
    {
      "inputs": [
        {
          "internalType": "uint256",
          "name": "",
          "type": "uint256"
        }
      ],
      "name": "minted",
      "outputs": [
        {
          "internalType": "uint256",
          "name": "",
          "type": "uint256"
        }
      ],
      "stateMutability": "view",
      "type": "function",
      "constant": true
    },
    {
      "inputs": [
        {
          "internalType": "address",
          "name": "from",
          "type": "address"
        },
        {
          "internalType": "address",
          "name": "to",
          "type": "address"
        },
        {
          "internalType": "uint256[]",
          "name": "ids",
          "type": "uint256[]"
        },
        {
          "internalType": "uint256[]",
          "name": "amounts",
          "type": "uint256[]"
        },
        {
          "internalType": "bytes",
          "name": "data",
          "type": "bytes"
        }
      ],
      "name": "safeBatchTransferFrom",
      "outputs": [],
      "stateMutability": "nonpayable",
      "type": "function"
    },
    {
      "inputs": [
        {
          "internalType": "address",
          "name": "from",
          "type": "address"
        },
        {
          "internalType": "address",
          "name": "to",
          "type": "address"
        },
        {
          "internalType": "uint256",
          "name": "id",
          "type": "uint256"
        },
        {
          "internalType": "uint256",
          "name": "amount",
          "type": "uint256"
        },
        {
          "internalType": "bytes",
          "name": "data",
          "type": "bytes"
        }
      ],
      "name": "safeTransferFrom",
      "outputs": [],
      "stateMutability": "nonpayable",
      "type": "function"
    },
    {
      "inputs": [
        {
          "internalType": "address",
          "name": "operator",
          "type": "address"
        },
        {
          "internalType": "bool",
          "name": "approved",
          "type": "bool"
        }
      ],
      "name": "setApprovalForAll",
      "outputs": [],
      "stateMutability": "nonpayable",
      "type": "function"
    },
    {
      "inputs": [
        {
          "internalType": "uint256",
          "name": "",
          "type": "uint256"
        }
      ],
      "name": "supplies",
      "outputs": [
        {
          "internalType": "uint256",
          "name": "",
          "type": "uint256"
        }
      ],
      "stateMutability": "view",
      "type": "function",
      "constant": true
    },
    {
      "inputs": [
        {
          "internalType": "bytes4",
          "name": "interfaceId",
          "type": "bytes4"
        }
      ],
      "name": "supportsInterface",
      "outputs": [
        {
          "internalType": "bool",
          "name": "",
          "type": "bool"
        }
      ],
      "stateMutability": "view",
      "type": "function",
      "constant": true
    },
    {
      "inputs": [
        {
          "internalType": "uint256",
          "name": "id",
          "type": "uint256"
        },
        {
          "internalType": "uint256",
          "name": "amount",
          "type": "uint256"
        }
      ],
      "name": "mint",
      "outputs": [],
      "stateMutability": "payable",
      "type": "function",
      "payable": true
    },
    {
      "inputs": [
        {
          "internalType": "uint256",
          "name": "_tokenid",
          "type": "uint256"
        }
      ],
      "name": "uri",
      "outputs": [
        {
          "internalType": "string",
          "name": "",
          "type": "string"
        }
      ],
      "stateMutability": "pure",
      "type": "function",
      "constant": true
    }
  ],
  "bytecode": "0x60806040526611c37937e080006003556040518060e00160405280600060ff168152602001600060ff168152602001600060ff168152602001600060ff168152602001600060ff168152602001600060ff168152602001600060ff1681525060049060076200007092919062000138565b506040518060e00160405280600a61ffff168152602001600a61ffff168152602001600a61ffff1681526020016103e761ffff168152602001603261ffff168152602001606461ffff16815260200161030961ffff168152506005906007620000db9291906200018f565b50348015620000e957600080fd5b506040518060800160405280605a8152602001620034bd605a913962000115816200011c60201b60201c565b50620002fb565b806002908051906020019062000134929190620001e7565b5050565b8280548282559060005260206000209081019282156200017c579160200282015b828111156200017b578251829060ff1690559160200191906001019062000159565b5b5090506200018b919062000278565b5090565b828054828255906000526020600020908101928215620001d4579160200282015b82811115620001d3578251829061ffff16905591602001919060010190620001b0565b5b509050620001e3919062000278565b5090565b828054620001f590620002c6565b90600052602060002090601f01602090048101928262000219576000855562000265565b82601f106200023457805160ff191683800117855562000265565b8280016001018555821562000265579182015b828111156200026457825182559160200191906001019062000247565b5b50905062000274919062000278565b5090565b5b808211156200029357600081600090555060010162000279565b5090565b7f4e487b7100000000000000000000000000000000000000000000000000000000600052602260045260246000fd5b60006002820490506001821680620002df57607f821691505b602082108103620002f557620002f462000297565b5b50919050565b6131b2806200030b6000396000f3fe6080604052600436106101135760003560e01c806366504c12116100a0578063cd59c6d511610064578063cd59c6d5146103cb578063e985e9c5146103f6578063f242432a14610433578063f5cf12fc1461045c578063fbc867f01461048757610113565b806366504c12146102e45780637dc0bf3f1461030f578063a22cb4651461034c578063bf87d6bf14610375578063ca0dcf16146103a057610113565b80631b2ef1ca116100e75780631b2ef1ca146101fa57806326f1a1fd146102165780632eb2c2d61461025357806342fa98e01461027c5780634e1273f4146102a757610113565b8062fdd58e1461011857806301ffc9a7146101555780630e89341c1461019257806310d19aa9146101cf575b600080fd5b34801561012457600080fd5b5061013f600480360381019061013a9190611b8c565b6104b2565b60405161014c9190611bdb565b60405180910390f35b34801561016157600080fd5b5061017c60048036038101906101779190611c4e565b61057a565b6040516101899190611c96565b60405180910390f35b34801561019e57600080fd5b506101b960048036038101906101b49190611cb1565b61065c565b6040516101c69190611d77565b60405180910390f35b3480156101db57600080fd5b506101e461068d565b6040516101f19190611bdb565b60405180910390f35b610214600480360381019061020f9190611d99565b610692565b005b34801561022257600080fd5b5061023d60048036038101906102389190611cb1565b61086e565b60405161024a9190611bdb565b60405180910390f35b34801561025f57600080fd5b5061027a60048036038101906102759190611fd6565b610892565b005b34801561028857600080fd5b50610291610933565b60405161029e9190611bdb565b60405180910390f35b3480156102b357600080fd5b506102ce60048036038101906102c99190612168565b610938565b6040516102db919061229e565b60405180910390f35b3480156102f057600080fd5b506102f9610a51565b6040516103069190611bdb565b60405180910390f35b34801561031b57600080fd5b5061033660048036038101906103319190611cb1565b610a56565b6040516103439190611bdb565b60405180910390f35b34801561035857600080fd5b50610373600480360381019061036e91906122ec565b610a7a565b005b34801561038157600080fd5b5061038a610a90565b6040516103979190611bdb565b60405180910390f35b3480156103ac57600080fd5b506103b5610a95565b6040516103c29190611bdb565b60405180910390f35b3480156103d757600080fd5b506103e0610a9b565b6040516103ed9190611bdb565b60405180910390f35b34801561040257600080fd5b5061041d6004803603810190610418919061232c565b610aa0565b60405161042a9190611c96565b60405180910390f35b34801561043f57600080fd5b5061045a6004803603810190610455919061236c565b610b34565b005b34801561046857600080fd5b50610471610bd5565b60405161047e9190611bdb565b60405180910390f35b34801561049357600080fd5b5061049c610bda565b6040516104a99190611bdb565b60405180910390f35b60008073ffffffffffffffffffffffffffffffffffffffff168373ffffffffffffffffffffffffffffffffffffffff1603610522576040517f08c379a000000000000000000000000000000000000000000000000000000000815260040161051990612475565b60405180910390fd5b60008083815260200190815260200160002060008473ffffffffffffffffffffffffffffffffffffffff1673ffffffffffffffffffffffffffffffffffffffff16815260200190815260200160002054905092915050565b60007fd9b67a26000000000000000000000000000000000000000000000000000000007bffffffffffffffffffffffffffffffffffffffffffffffffffffffff1916827bffffffffffffffffffffffffffffffffffffffffffffffffffffffff1916148061064557507f0e89341c000000000000000000000000000000000000000000000000000000007bffffffffffffffffffffffffffffffffffffffffffffffffffffffff1916827bffffffffffffffffffffffffffffffffffffffffffffffffffffffff1916145b80610655575061065482610bdf565b5b9050919050565b606061066782610c49565b60405160200161067791906125b5565b6040516020818303038152906040529050919050565b600781565b6005805490508211156106da576040517f08c379a00000000000000000000000000000000000000000000000000000000081526004016106d19061262e565b60405180910390fd5b6000821161071d576040517f08c379a00000000000000000000000000000000000000000000000000000000081526004016107149061262e565b60405180910390fd5b6003548161072b919061267d565b34101561076d576040517f08c379a000000000000000000000000000000000000000000000000000000000815260040161076490612723565b60405180910390fd5b600560018361077c9190612743565b8154811061078d5761078c612777565b5b90600052602060002001548160046001856107a89190612743565b815481106107b9576107b8612777565b5b90600052602060002001546107ce91906127a6565b111561080f576040517f08c379a000000000000000000000000000000000000000000000000000000000815260040161080690612848565b60405180910390fd5b600460018361081e9190612743565b8154811061082f5761082e612777565b5b90600052602060002001600081548092919061084a90612868565b919050555061086a33838360405180602001604052806000815250610da9565b5050565b6005818154811061087e57600080fd5b906000526020600020016000915090505481565b61089a610f59565b73ffffffffffffffffffffffffffffffffffffffff168573ffffffffffffffffffffffffffffffffffffffff1614806108e057506108df856108da610f59565b610aa0565b5b61091f576040517f08c379a000000000000000000000000000000000000000000000000000000000815260040161091690612922565b60405180910390fd5b61092c8585858585610f61565b5050505050565b600281565b6060815183511461097e576040517f08c379a0000000000000000000000000000000000000000000000000000000008152600401610975906129b4565b60405180910390fd5b6000835167ffffffffffffffff81111561099b5761099a611dde565b5b6040519080825280602002602001820160405280156109c95781602001602082028036833780820191505090505b50905060005b8451811015610a4657610a168582815181106109ee576109ed612777565b5b6020026020010151858381518110610a0957610a08612777565b5b60200260200101516104b2565b828281518110610a2957610a28612777565b5b60200260200101818152505080610a3f90612868565b90506109cf565b508091505092915050565b600581565b60048181548110610a6657600080fd5b906000526020600020016000915090505481565b610a8c610a85610f59565b8383611282565b5050565b600181565b60035481565b600481565b6000600160008473ffffffffffffffffffffffffffffffffffffffff1673ffffffffffffffffffffffffffffffffffffffff16815260200190815260200160002060008373ffffffffffffffffffffffffffffffffffffffff1673ffffffffffffffffffffffffffffffffffffffff16815260200190815260200160002060009054906101000a900460ff16905092915050565b610b3c610f59565b73ffffffffffffffffffffffffffffffffffffffff168573ffffffffffffffffffffffffffffffffffffffff161480610b825750610b8185610b7c610f59565b610aa0565b5b610bc1576040517f08c379a0000000000000000000000000000000000000000000000000000000008152600401610bb890612a46565b60405180910390fd5b610bce85858585856113ee565b5050505050565b600681565b600381565b60007f01ffc9a7000000000000000000000000000000000000000000000000000000007bffffffffffffffffffffffffffffffffffffffffffffffffffffffff1916827bffffffffffffffffffffffffffffffffffffffffffffffffffffffff1916149050919050565b606060008203610c90576040518060400160405280600181526020017f30000000000000000000000000000000000000000000000000000000000000008152509050610da4565b600082905060005b60008214610cc2578080610cab90612868565b915050600a82610cbb9190612a95565b9150610c98565b60008167ffffffffffffffff811115610cde57610cdd611dde565b5b6040519080825280601f01601f191660200182016040528015610d105781602001600182028036833780820191505090505b5090505b60008514610d9d57600182610d299190612743565b9150600a85610d389190612ac6565b6030610d4491906127a6565b60f81b818381518110610d5a57610d59612777565b5b60200101907effffffffffffffffffffffffffffffffffffffffffffffffffffffffffffff1916908160001a905350600a85610d969190612a95565b9450610d14565b8093505050505b919050565b600073ffffffffffffffffffffffffffffffffffffffff168473ffffffffffffffffffffffffffffffffffffffff1603610e18576040517f08c379a0000000000000000000000000000000000000000000000000000000008152600401610e0f90612b69565b60405180910390fd5b6000610e22610f59565b90506000610e2f85611689565b90506000610e3c85611689565b9050610e4d83600089858589611703565b8460008088815260200190815260200160002060008973ffffffffffffffffffffffffffffffffffffffff1673ffffffffffffffffffffffffffffffffffffffff1681526020019081526020016000206000828254610eac91906127a6565b925050819055508673ffffffffffffffffffffffffffffffffffffffff16600073ffffffffffffffffffffffffffffffffffffffff168473ffffffffffffffffffffffffffffffffffffffff167fc3d58168c5ae7397731d063d5bbf3d657854427343f4c083240f7aacaa2d0f628989604051610f2a929190612b89565b60405180910390a4610f418360008985858961170b565b610f5083600089898989611713565b50505050505050565b600033905090565b8151835114610fa5576040517f08c379a0000000000000000000000000000000000000000000000000000000008152600401610f9c90612c24565b60405180910390fd5b600073ffffffffffffffffffffffffffffffffffffffff168473ffffffffffffffffffffffffffffffffffffffff1603611014576040517f08c379a000000000000000000000000000000000000000000000000000000000815260040161100b90612cb6565b60405180910390fd5b600061101e610f59565b905061102e818787878787611703565b60005b84518110156111df57600085828151811061104f5761104e612777565b5b60200260200101519050600085838151811061106e5761106d612777565b5b60200260200101519050600080600084815260200190815260200160002060008b73ffffffffffffffffffffffffffffffffffffffff1673ffffffffffffffffffffffffffffffffffffffff1681526020019081526020016000205490508181101561110f576040517f08c379a000000000000000000000000000000000000000000000000000000000815260040161110690612d48565b60405180910390fd5b81810360008085815260200190815260200160002060008c73ffffffffffffffffffffffffffffffffffffffff1673ffffffffffffffffffffffffffffffffffffffff168152602001908152602001600020819055508160008085815260200190815260200160002060008b73ffffffffffffffffffffffffffffffffffffffff1673ffffffffffffffffffffffffffffffffffffffff16815260200190815260200160002060008282546111c491906127a6565b92505081905550505050806111d890612868565b9050611031565b508473ffffffffffffffffffffffffffffffffffffffff168673ffffffffffffffffffffffffffffffffffffffff168273ffffffffffffffffffffffffffffffffffffffff167f4a39dc06d4c0dbc64b70af90fd698a233a518aa5d07e595d983b8c0526c8f7fb8787604051611256929190612d68565b60405180910390a461126c81878787878761170b565b61127a8187878787876118ea565b505050505050565b8173ffffffffffffffffffffffffffffffffffffffff168373ffffffffffffffffffffffffffffffffffffffff16036112f0576040517f08c379a00000000000000000000000000000000000000000000000000000000081526004016112e790612e11565b60405180910390fd5b80600160008573ffffffffffffffffffffffffffffffffffffffff1673ffffffffffffffffffffffffffffffffffffffff16815260200190815260200160002060008473ffffffffffffffffffffffffffffffffffffffff1673ffffffffffffffffffffffffffffffffffffffff16815260200190815260200160002060006101000a81548160ff0219169083151502179055508173ffffffffffffffffffffffffffffffffffffffff168373ffffffffffffffffffffffffffffffffffffffff167f17307eab39ab6107e8899845ad3d59bd9653f200f220920489ca2b5937696c31836040516113e19190611c96565b60405180910390a3505050565b600073ffffffffffffffffffffffffffffffffffffffff168473ffffffffffffffffffffffffffffffffffffffff160361145d576040517f08c379a000000000000000000000000000000000000000000000000000000000815260040161145490612cb6565b60405180910390fd5b6000611467610f59565b9050600061147485611689565b9050600061148185611689565b9050611491838989858589611703565b600080600088815260200190815260200160002060008a73ffffffffffffffffffffffffffffffffffffffff1673ffffffffffffffffffffffffffffffffffffffff16815260200190815260200160002054905085811015611528576040517f08c379a000000000000000000000000000000000000000000000000000000000815260040161151f90612d48565b60405180910390fd5b85810360008089815260200190815260200160002060008b73ffffffffffffffffffffffffffffffffffffffff1673ffffffffffffffffffffffffffffffffffffffff168152602001908152602001600020819055508560008089815260200190815260200160002060008a73ffffffffffffffffffffffffffffffffffffffff1673ffffffffffffffffffffffffffffffffffffffff16815260200190815260200160002060008282546115dd91906127a6565b925050819055508773ffffffffffffffffffffffffffffffffffffffff168973ffffffffffffffffffffffffffffffffffffffff168573ffffffffffffffffffffffffffffffffffffffff167fc3d58168c5ae7397731d063d5bbf3d657854427343f4c083240f7aacaa2d0f628a8a60405161165a929190612b89565b60405180910390a4611670848a8a86868a61170b565b61167e848a8a8a8a8a611713565b505050505050505050565b60606000600167ffffffffffffffff8111156116a8576116a7611dde565b5b6040519080825280602002602001820160405280156116d65781602001602082028036833780820191505090505b50905082816000815181106116ee576116ed612777565b5b60200260200101818152505080915050919050565b505050505050565b505050505050565b6117328473ffffffffffffffffffffffffffffffffffffffff16611ac1565b156118e2578373ffffffffffffffffffffffffffffffffffffffff1663f23a6e6187878686866040518663ffffffff1660e01b8152600401611778959493929190612e95565b6020604051808303816000875af19250505080156117b457506040513d601f19601f820116820180604052508101906117b19190612f04565b60015b611859576117c0612f3e565b806308c379a00361181c57506117d4612f60565b806117df575061181e565b806040517f08c379a00000000000000000000000000000000000000000000000000000000081526004016118139190611d77565b60405180910390fd5b505b6040517f08c379a000000000000000000000000000000000000000000000000000000000815260040161185090613062565b60405180910390fd5b63f23a6e6160e01b7bffffffffffffffffffffffffffffffffffffffffffffffffffffffff1916817bffffffffffffffffffffffffffffffffffffffffffffffffffffffff1916146118e0576040517f08c379a00000000000000000000000000000000000000000000000000000000081526004016118d7906130f4565b60405180910390fd5b505b505050505050565b6119098473ffffffffffffffffffffffffffffffffffffffff16611ac1565b15611ab9578373ffffffffffffffffffffffffffffffffffffffff1663bc197c8187878686866040518663ffffffff1660e01b815260040161194f959493929190613114565b6020604051808303816000875af192505050801561198b57506040513d601f19601f820116820180604052508101906119889190612f04565b60015b611a3057611997612f3e565b806308c379a0036119f357506119ab612f60565b806119b657506119f5565b806040517f08c379a00000000000000000000000000000000000000000000000000000000081526004016119ea9190611d77565b60405180910390fd5b505b6040517f08c379a0000000000000000000000000000000000000000000000000000000008152600401611a2790613062565b60405180910390fd5b63bc197c8160e01b7bffffffffffffffffffffffffffffffffffffffffffffffffffffffff1916817bffffffffffffffffffffffffffffffffffffffffffffffffffffffff191614611ab7576040517f08c379a0000000000000000000000000000000000000000000000000000000008152600401611aae906130f4565b60405180910390fd5b505b505050505050565b6000808273ffffffffffffffffffffffffffffffffffffffff163b119050919050565b6000604051905090565b600080fd5b600080fd5b600073ffffffffffffffffffffffffffffffffffffffff82169050919050565b6000611b2382611af8565b9050919050565b611b3381611b18565b8114611b3e57600080fd5b50565b600081359050611b5081611b2a565b92915050565b6000819050919050565b611b6981611b56565b8114611b7457600080fd5b50565b600081359050611b8681611b60565b92915050565b60008060408385031215611ba357611ba2611aee565b5b6000611bb185828601611b41565b9250506020611bc285828601611b77565b9150509250929050565b611bd581611b56565b82525050565b6000602082019050611bf06000830184611bcc565b92915050565b60007fffffffff0000000000000000000000000000000000000000000000000000000082169050919050565b611c2b81611bf6565b8114611c3657600080fd5b50565b600081359050611c4881611c22565b92915050565b600060208284031215611c6457611c63611aee565b5b6000611c7284828501611c39565b91505092915050565b60008115159050919050565b611c9081611c7b565b82525050565b6000602082019050611cab6000830184611c87565b92915050565b600060208284031215611cc757611cc6611aee565b5b6000611cd584828501611b77565b91505092915050565b600081519050919050565b600082825260208201905092915050565b60005b83811015611d18578082015181840152602081019050611cfd565b83811115611d27576000848401525b50505050565b6000601f19601f8301169050919050565b6000611d4982611cde565b611d538185611ce9565b9350611d63818560208601611cfa565b611d6c81611d2d565b840191505092915050565b60006020820190508181036000830152611d918184611d3e565b905092915050565b60008060408385031215611db057611daf611aee565b5b6000611dbe85828601611b77565b9250506020611dcf85828601611b77565b9150509250929050565b600080fd5b7f4e487b7100000000000000000000000000000000000000000000000000000000600052604160045260246000fd5b611e1682611d2d565b810181811067ffffffffffffffff82111715611e3557611e34611dde565b5b80604052505050565b6000611e48611ae4565b9050611e548282611e0d565b919050565b600067ffffffffffffffff821115611e7457611e73611dde565b5b602082029050602081019050919050565b600080fd5b6000611e9d611e9884611e59565b611e3e565b90508083825260208201905060208402830185811115611ec057611ebf611e85565b5b835b81811015611ee95780611ed58882611b77565b845260208401935050602081019050611ec2565b5050509392505050565b600082601f830112611f0857611f07611dd9565b5b8135611f18848260208601611e8a565b91505092915050565b600080fd5b600067ffffffffffffffff821115611f4157611f40611dde565b5b611f4a82611d2d565b9050602081019050919050565b82818337600083830152505050565b6000611f79611f7484611f26565b611e3e565b905082815260208101848484011115611f9557611f94611f21565b5b611fa0848285611f57565b509392505050565b600082601f830112611fbd57611fbc611dd9565b5b8135611fcd848260208601611f66565b91505092915050565b600080600080600060a08688031215611ff257611ff1611aee565b5b600061200088828901611b41565b955050602061201188828901611b41565b945050604086013567ffffffffffffffff81111561203257612031611af3565b5b61203e88828901611ef3565b935050606086013567ffffffffffffffff81111561205f5761205e611af3565b5b61206b88828901611ef3565b925050608086013567ffffffffffffffff81111561208c5761208b611af3565b5b61209888828901611fa8565b9150509295509295909350565b600067ffffffffffffffff8211156120c0576120bf611dde565b5b602082029050602081019050919050565b60006120e46120df846120a5565b611e3e565b9050808382526020820190506020840283018581111561210757612106611e85565b5b835b81811015612130578061211c8882611b41565b845260208401935050602081019050612109565b5050509392505050565b600082601f83011261214f5761214e611dd9565b5b813561215f8482602086016120d1565b91505092915050565b6000806040838503121561217f5761217e611aee565b5b600083013567ffffffffffffffff81111561219d5761219c611af3565b5b6121a98582860161213a565b925050602083013567ffffffffffffffff8111156121ca576121c9611af3565b5b6121d685828601611ef3565b9150509250929050565b600081519050919050565b600082825260208201905092915050565b6000819050602082019050919050565b61221581611b56565b82525050565b6000612227838361220c565b60208301905092915050565b6000602082019050919050565b600061224b826121e0565b61225581856121eb565b9350612260836121fc565b8060005b83811015612291578151612278888261221b565b975061228383612233565b925050600181019050612264565b5085935050505092915050565b600060208201905081810360008301526122b88184612240565b905092915050565b6122c981611c7b565b81146122d457600080fd5b50565b6000813590506122e6816122c0565b92915050565b6000806040838503121561230357612302611aee565b5b600061231185828601611b41565b9250506020612322858286016122d7565b9150509250929050565b6000806040838503121561234357612342611aee565b5b600061235185828601611b41565b925050602061236285828601611b41565b9150509250929050565b600080600080600060a0868803121561238857612387611aee565b5b600061239688828901611b41565b95505060206123a788828901611b41565b94505060406123b888828901611b77565b93505060606123c988828901611b77565b925050608086013567ffffffffffffffff8111156123ea576123e9611af3565b5b6123f688828901611fa8565b9150509295509295909350565b7f455243313135353a2062616c616e636520717565727920666f7220746865207a60008201527f65726f2061646472657373000000000000000000000000000000000000000000602082015250565b600061245f602b83611ce9565b915061246a82612403565b604082019050919050565b6000602082019050818103600083015261248e81612452565b9050919050565b600081905092915050565b7f68747470733a2f2f697066732e696f2f697066732f62616679626569686d663660008201527f6e64656a7861766c373536716d61637a6a7a707962727573376469753436366660208201527f6c78736a6e6876783334777a6b6365712f000000000000000000000000000000604082015250565b6000612522605183612495565b915061252d826124a0565b605182019050919050565b600061254382611cde565b61254d8185612495565b935061255d818560208601611cfa565b80840191505092915050565b7f2e6a736f6e000000000000000000000000000000000000000000000000000000600082015250565b600061259f600583612495565b91506125aa82612569565b600582019050919050565b60006125c082612515565b91506125cc8284612538565b91506125d782612592565b915081905092915050565b7f546f6b656e20646f65736e277420657869737400000000000000000000000000600082015250565b6000612618601383611ce9565b9150612623826125e2565b602082019050919050565b600060208201905081810360008301526126478161260b565b9050919050565b7f4e487b7100000000000000000000000000000000000000000000000000000000600052601160045260246000fd5b600061268882611b56565b915061269383611b56565b9250817fffffffffffffffffffffffffffffffffffffffffffffffffffffffffffffffff04831182151516156126cc576126cb61264e565b5b828202905092915050565b7f4e6f7420656e6f7567682065746865722073656e740000000000000000000000600082015250565b600061270d601583611ce9565b9150612718826126d7565b602082019050919050565b6000602082019050818103600083015261273c81612700565b9050919050565b600061274e82611b56565b915061275983611b56565b92508282101561276c5761276b61264e565b5b828203905092915050565b7f4e487b7100000000000000000000000000000000000000000000000000000000600052603260045260246000fd5b60006127b182611b56565b91506127bc83611b56565b9250827fffffffffffffffffffffffffffffffffffffffffffffffffffffffffffffffff038211156127f1576127f061264e565b5b828201905092915050565b7f6e6f7420656e6f7567687420737570706c79206c656674000000000000000000600082015250565b6000612832601783611ce9565b915061283d826127fc565b602082019050919050565b6000602082019050818103600083015261286181612825565b9050919050565b600061287382611b56565b91507fffffffffffffffffffffffffffffffffffffffffffffffffffffffffffffffff82036128a5576128a461264e565b5b600182019050919050565b7f455243313135353a207472616e736665722063616c6c6572206973206e6f742060008201527f6f776e6572206e6f7220617070726f7665640000000000000000000000000000602082015250565b600061290c603283611ce9565b9150612917826128b0565b604082019050919050565b6000602082019050818103600083015261293b816128ff565b9050919050565b7f455243313135353a206163636f756e747320616e6420696473206c656e67746860008201527f206d69736d617463680000000000000000000000000000000000000000000000602082015250565b600061299e602983611ce9565b91506129a982612942565b604082019050919050565b600060208201905081810360008301526129cd81612991565b9050919050565b7f455243313135353a2063616c6c6572206973206e6f74206f776e6572206e6f7260008201527f20617070726f7665640000000000000000000000000000000000000000000000602082015250565b6000612a30602983611ce9565b9150612a3b826129d4565b604082019050919050565b60006020820190508181036000830152612a5f81612a23565b9050919050565b7f4e487b7100000000000000000000000000000000000000000000000000000000600052601260045260246000fd5b6000612aa082611b56565b9150612aab83611b56565b925082612abb57612aba612a66565b5b828204905092915050565b6000612ad182611b56565b9150612adc83611b56565b925082612aec57612aeb612a66565b5b828206905092915050565b7f455243313135353a206d696e7420746f20746865207a65726f2061646472657360008201527f7300000000000000000000000000000000000000000000000000000000000000602082015250565b6000612b53602183611ce9565b9150612b5e82612af7565b604082019050919050565b60006020820190508181036000830152612b8281612b46565b9050919050565b6000604082019050612b9e6000830185611bcc565b612bab6020830184611bcc565b9392505050565b7f455243313135353a2069647320616e6420616d6f756e7473206c656e6774682060008201527f6d69736d61746368000000000000000000000000000000000000000000000000602082015250565b6000612c0e602883611ce9565b9150612c1982612bb2565b604082019050919050565b60006020820190508181036000830152612c3d81612c01565b9050919050565b7f455243313135353a207472616e7366657220746f20746865207a65726f20616460008201527f6472657373000000000000000000000000000000000000000000000000000000602082015250565b6000612ca0602583611ce9565b9150612cab82612c44565b604082019050919050565b60006020820190508181036000830152612ccf81612c93565b9050919050565b7f455243313135353a20696e73756666696369656e742062616c616e636520666f60008201527f72207472616e7366657200000000000000000000000000000000000000000000602082015250565b6000612d32602a83611ce9565b9150612d3d82612cd6565b604082019050919050565b60006020820190508181036000830152612d6181612d25565b9050919050565b60006040820190508181036000830152612d828185612240565b90508181036020830152612d968184612240565b90509392505050565b7f455243313135353a2073657474696e6720617070726f76616c2073746174757360008201527f20666f722073656c660000000000000000000000000000000000000000000000602082015250565b6000612dfb602983611ce9565b9150612e0682612d9f565b604082019050919050565b60006020820190508181036000830152612e2a81612dee565b9050919050565b612e3a81611b18565b82525050565b600081519050919050565b600082825260208201905092915050565b6000612e6782612e40565b612e718185612e4b565b9350612e81818560208601611cfa565b612e8a81611d2d565b840191505092915050565b600060a082019050612eaa6000830188612e31565b612eb76020830187612e31565b612ec46040830186611bcc565b612ed16060830185611bcc565b8181036080830152612ee38184612e5c565b90509695505050505050565b600081519050612efe81611c22565b92915050565b600060208284031215612f1a57612f19611aee565b5b6000612f2884828501612eef565b91505092915050565b60008160e01c9050919050565b600060033d1115612f5d5760046000803e612f5a600051612f31565b90505b90565b600060443d10612fed57612f72611ae4565b60043d036004823e80513d602482011167ffffffffffffffff82111715612f9a575050612fed565b808201805167ffffffffffffffff811115612fb85750505050612fed565b80602083010160043d038501811115612fd5575050505050612fed565b612fe482602001850186611e0d565b82955050505050505b90565b7f455243313135353a207472616e7366657220746f206e6f6e204552433131353560008201527f526563656976657220696d706c656d656e746572000000000000000000000000602082015250565b600061304c603483611ce9565b915061305782612ff0565b604082019050919050565b6000602082019050818103600083015261307b8161303f565b9050919050565b7f455243313135353a204552433131353552656365697665722072656a6563746560008201527f6420746f6b656e73000000000000000000000000000000000000000000000000602082015250565b60006130de602883611ce9565b91506130e982613082565b604082019050919050565b6000602082019050818103600083015261310d816130d1565b9050919050565b600060a0820190506131296000830188612e31565b6131366020830187612e31565b81810360408301526131488186612240565b9050818103606083015261315c8185612240565b905081810360808301526131708184612e5c565b9050969550505050505056fea2646970667358221220afde1358558d77294b2f20f5980766fe41be9c3b4e9d462c26aa44d614da50dd64736f6c634300080e003368747470733a2f2f697066732e696f2f697066732f62616679626569686d66366e64656a7861766c373536716d61637a6a7a70796272757337646975343636666c78736a6e6876783334777a6b6365712f7b69647d2e6a736f6e",
  "immutableReferences": {},
  "source": "// SPDX-License-Identifier: MIT\npragma solidity ^0.8.0;\n\nimport \"@openzeppelin/contracts/token/ERC1155/ERC1155.sol\";\nimport \"@openzeppelin/contracts/utils/Strings.sol\";\n\ncontract GameItem is ERC1155 {\n    uint256 public constant Red = 1;\n    uint256 public constant Orange = 2;\n    uint256 public constant Yellow = 3;\n    uint256 public constant Green = 4;\n    uint256 public constant Blue = 5;\n    uint256 public constant Navy = 6;\n    uint256 public constant Purple = 7;\n\n    uint256 public mintRate = 0.005 ether;\n    uint256[] public minted = [0, 0, 0, 0, 0 ,0 ,0];\n    uint256[] public supplies = [10, 10, 10, 999, 50, 100, 777];\n\n\n    constructor() ERC1155(\"https://ipfs.io/ipfs/bafybeihmf6ndejxavl756qmaczjzpybrus7diu466flxsjnhvx34wzkceq/{id}.json\") {\n        // _mint(msg.sender, Red, 1, \"\");\n        // _mint(msg.sender, Orange, 1, \"\");\n        // _mint(msg.sender, Yellow, 1, \"\");\n        // _mint(msg.sender, Green, 1, \"\");\n        // _mint(msg.sender, Blue, 1, \"\");\n        // _mint(msg.sender, Navy, 1, \"\");\n        // _mint(msg.sender, Purple, 1, \"\");\n    }\n\n    function mint(uint256 id, uint256 amount) payable public {\n        require(id <= supplies.length, \"Token doesn't exist\");\n        require(id > 0, \"Token doesn't exist\");\n        require(msg.value >= (amount * mintRate), \"Not enough ether sent\");\n        require(minted[id - 1] + amount <= supplies[id -1], \"not enought supply left\");\n        minted[id-1]++;\n        _mint(msg.sender, id, amount, \"\");\n    }\n\n    function uri(uint256 _tokenid) override public pure returns (string memory) {\n        return string(\n            abi.encodePacked(\n                \"https://ipfs.io/ipfs/bafybeihmf6ndejxavl756qmaczjzpybrus7diu466flxsjnhvx34wzkceq/\",\n                Strings.toString(_tokenid),\".json\"\n            )\n        );\n    }\n}",
  "sourcePath": "/Users/shinhyunsuk/blockchain/ethereum-tic-tac-toe/contracts/GameItem.sol",
  "compiler": {
    "name": "solc",
    "version": "0.8.14+commit.80d49f37.Emscripten.clang"
  },
  "schemaVersion": "3.4.16",
  "updatedAt": "2024-03-12T15:59:38.177Z",
  "networkType": "ethereum",
  "devdoc": {
    "kind": "dev",
    "methods": {
      "balanceOf(address,uint256)": {
        "details": "See {IERC1155-balanceOf}. Requirements: - `account` cannot be the zero address."
      },
      "balanceOfBatch(address[],uint256[])": {
        "details": "See {IERC1155-balanceOfBatch}. Requirements: - `accounts` and `ids` must have the same length."
      },
      "isApprovedForAll(address,address)": {
        "details": "See {IERC1155-isApprovedForAll}."
      },
      "safeBatchTransferFrom(address,address,uint256[],uint256[],bytes)": {
        "details": "See {IERC1155-safeBatchTransferFrom}."
      },
      "safeTransferFrom(address,address,uint256,uint256,bytes)": {
        "details": "See {IERC1155-safeTransferFrom}."
      },
      "setApprovalForAll(address,bool)": {
        "details": "See {IERC1155-setApprovalForAll}."
      },
      "supportsInterface(bytes4)": {
        "details": "See {IERC165-supportsInterface}."
      }
    },
    "version": 1
  },
  "userdoc": {
    "kind": "user",
    "methods": {},
    "version": 1
  }
}