{
  "contractName": "TicTacToe",
  "abi": [
    {
      "inputs": [],
      "stateMutability": "payable",
      "type": "constructor",
      "payable": true
    },
    {
      "anonymous": false,
      "inputs": [],
      "name": "gameEnd",
      "type": "event"
    },
    {
      "anonymous": false,
      "inputs": [],
      "name": "gameStart",
      "type": "event"
    },
    {
      "anonymous": false,
      "inputs": [],
      "name": "moveMade",
      "type": "event"
    },
    {
      "inputs": [],
      "name": "betAmount",
      "outputs": [
        {
          "internalType": "uint256",
          "name": "",
          "type": "uint256"
        }
      ],
      "stateMutability": "view",
      "type": "function",
      "constant": true
    },
    {
      "inputs": [
        {
          "internalType": "uint256",
          "name": "",
          "type": "uint256"
        }
      ],
      "name": "board",
      "outputs": [
        {
          "internalType": "uint8",
          "name": "",
          "type": "uint8"
        }
      ],
      "stateMutability": "view",
      "type": "function",
      "constant": true
    },
    {
      "inputs": [],
      "name": "gameOver",
      "outputs": [
        {
          "internalType": "bool",
          "name": "",
          "type": "bool"
        }
      ],
      "stateMutability": "view",
      "type": "function",
      "constant": true
    },
    {
      "inputs": [],
      "name": "player1",
      "outputs": [
        {
          "internalType": "address",
          "name": "",
          "type": "address"
        }
      ],
      "stateMutability": "view",
      "type": "function",
      "constant": true
    },
    {
      "inputs": [],
      "name": "player2",
      "outputs": [
        {
          "internalType": "address",
          "name": "",
          "type": "address"
        }
      ],
      "stateMutability": "view",
      "type": "function",
      "constant": true
    },
    {
      "inputs": [],
      "name": "whoseTurn",
      "outputs": [
        {
          "internalType": "address",
          "name": "",
          "type": "address"
        }
      ],
      "stateMutability": "view",
      "type": "function",
      "constant": true
    },
    {
      "inputs": [],
      "name": "winner",
      "outputs": [
        {
          "internalType": "address",
          "name": "",
          "type": "address"
        }
      ],
      "stateMutability": "view",
      "type": "function",
      "constant": true
    },
    {
      "inputs": [],
      "name": "join",
      "outputs": [],
      "stateMutability": "payable",
      "type": "function",
      "payable": true
    },
    {
      "inputs": [
        {
          "internalType": "uint256",
          "name": "place",
          "type": "uint256"
        }
      ],
      "name": "move",
      "outputs": [],
      "stateMutability": "nonpayable",
      "type": "function"
    },
    {
      "inputs": [],
      "name": "checkWinner",
      "outputs": [],
      "stateMutability": "nonpayable",
      "type": "function"
    },
    {
      "inputs": [],
      "name": "claim",
      "outputs": [],
      "stateMutability": "nonpayable",
      "type": "function"
    }
  ],
  "bytecode": "0x60806040526040518061010001604052806040518060600160405280600060ff168152602001600160ff168152602001600260ff1681525081526020016040518060600160405280600360ff168152602001600460ff168152602001600560ff1681525081526020016040518060600160405280600660ff168152602001600760ff168152602001600860ff1681525081526020016040518060600160405280600060ff168152602001600360ff168152602001600660ff1681525081526020016040518060600160405280600160ff168152602001600460ff168152602001600760ff1681525081526020016040518060600160405280600260ff168152602001600560ff168152602001600860ff1681525081526020016040518060600160405280600060ff168152602001600460ff168152602001600860ff1681525081526020016040518060600160405280600260ff168152602001600460ff168152602001600660ff16815250815250600690600862000180929190620001ce565b50336000806101000a81548173ffffffffffffffffffffffffffffffffffffffff021916908373ffffffffffffffffffffffffffffffffffffffff16021790555034600481905550620002f1565b8280548282559060005260206000209081019282156200021d579160200282015b828111156200021c578251829060036200020b92919062000230565b5091602001919060010190620001ef565b5b5090506200022c919062000287565b5090565b82805482825590600052602060002090810192821562000274579160200282015b8281111562000273578251829060ff1690559160200191906001019062000251565b5b509050620002839190620002af565b5090565b5b80821115620002ab5760008181620002a19190620002ce565b5060010162000288565b5090565b5b80821115620002ca576000816000905550600101620002b0565b5090565b5080546000825590600052602060002090810190620002ee9190620002af565b50565b610e5480620003016000396000f3fe60806040526004361061009c5760003560e01c8063ad38867e11610064578063ad38867e14610174578063b688a3631461018b578063bdb337d114610195578063d24257c0146101c0578063d30895e4146101eb578063dfbf53ae146102165761009c565b806328ed6e3f146100a15780634e71d92d146100de57806359a5f12d146100f557806387cb15f714610120578063ab57b8ef14610149575b600080fd5b3480156100ad57600080fd5b506100c860048036038101906100c39190610bfa565b610241565b6040516100d59190610c43565b60405180910390f35b3480156100ea57600080fd5b506100f361026b565b005b34801561010157600080fd5b5061010a610327565b6040516101179190610c9f565b60405180910390f35b34801561012c57600080fd5b5061014760048036038101906101429190610bfa565b61034d565b005b34801561015557600080fd5b5061015e6105b7565b60405161016b9190610c9f565b60405180910390f35b34801561018057600080fd5b506101896105dd565b005b610193610a26565b005b3480156101a157600080fd5b506101aa610b5c565b6040516101b79190610cd5565b60405180910390f35b3480156101cc57600080fd5b506101d5610b6f565b6040516101e29190610cff565b60405180910390f35b3480156101f757600080fd5b50610200610b75565b60405161020d9190610c9f565b60405180910390f35b34801561022257600080fd5b5061022b610b99565b6040516102389190610c9f565b60405180910390f35b6005816009811061025157600080fd5b60209182820401919006915054906101000a900460ff1681565b600360149054906101000a900460ff1661028457600080fd5b600360009054906101000a900473ffffffffffffffffffffffffffffffffffffffff1673ffffffffffffffffffffffffffffffffffffffff163373ffffffffffffffffffffffffffffffffffffffff16146102de57600080fd5b3373ffffffffffffffffffffffffffffffffffffffff166108fc479081150290604051600060405180830381858888f19350505050158015610324573d6000803e3d6000fd5b50565b600160009054906101000a900473ffffffffffffffffffffffffffffffffffffffff1681565b600260009054906101000a900473ffffffffffffffffffffffffffffffffffffffff1673ffffffffffffffffffffffffffffffffffffffff163373ffffffffffffffffffffffffffffffffffffffff16146103a757600080fd5b600360149054906101000a900460ff16156103f7576040517f08c379a00000000000000000000000000000000000000000000000000000000081526004016103ee90610d77565b60405180910390fd5b60008054906101000a900473ffffffffffffffffffffffffffffffffffffffff1673ffffffffffffffffffffffffffffffffffffffff163373ffffffffffffffffffffffffffffffffffffffff16036104e8576001600582600981106104605761045f610d97565b5b602091828204019190066101000a81548160ff021916908360ff160217905550600160009054906101000a900473ffffffffffffffffffffffffffffffffffffffff16600260006101000a81548173ffffffffffffffffffffffffffffffffffffffff021916908373ffffffffffffffffffffffffffffffffffffffff160217905550610580565b6002600582600981106104fe576104fd610d97565b5b602091828204019190066101000a81548160ff021916908360ff16021790555060008054906101000a900473ffffffffffffffffffffffffffffffffffffffff16600260006101000a81548173ffffffffffffffffffffffffffffffffffffffff021916908373ffffffffffffffffffffffffffffffffffffffff1602179055505b6105886105dd565b7fa26adc265a6b67d06df4a4e042433c5b4c1c590753c8277bc4599219f4141df960405160405180910390a150565b600260009054906101000a900473ffffffffffffffffffffffffffffffffffffffff1681565b60005b60088160ff161015610a2357600060068260ff168154811061060557610604610d97565b5b9060005260206000200180548060200260200160405190810160405280929190818152602001828054801561065957602002820191906000526020600020905b815481526020019060010190808311610645575b50505050509050600060058260008151811061067857610677610d97565b5b60200260200101516009811061069157610690610d97565b5b602091828204019190069054906101000a900460ff1660ff161415801561074557506005816001815181106106c9576106c8610d97565b5b6020026020010151600981106106e2576106e1610d97565b5b602091828204019190069054906101000a900460ff1660ff1660058260008151811061071157610710610d97565b5b60200260200101516009811061072a57610729610d97565b5b602091828204019190069054906101000a900460ff1660ff16145b80156107de575060058160028151811061076257610761610d97565b5b60200260200101516009811061077b5761077a610d97565b5b602091828204019190069054906101000a900460ff1660ff166005826000815181106107aa576107a9610d97565b5b6020026020010151600981106107c3576107c2610d97565b5b602091828204019190069054906101000a900460ff1660ff16145b15610a0f5760016005826000815181106107fb576107fa610d97565b5b60200260200101516009811061081457610813610d97565b5b602091828204019190069054906101000a900460ff1660ff1603610921576001600360146101000a81548160ff02191690831515021790555060008054906101000a900473ffffffffffffffffffffffffffffffffffffffff16600360006101000a81548173ffffffffffffffffffffffffffffffffffffffff021916908373ffffffffffffffffffffffffffffffffffffffff1602179055506000600260006101000a81548173ffffffffffffffffffffffffffffffffffffffff021916908373ffffffffffffffffffffffffffffffffffffffff1602179055507f0b8eebde3ac345d640bf5d3ccc1734f2886501024815d465e71fd03a85dda41b60405160405180910390a1610a0e565b6001600360146101000a81548160ff021916908315150217905550600160009054906101000a900473ffffffffffffffffffffffffffffffffffffffff16600360006101000a81548173ffffffffffffffffffffffffffffffffffffffff021916908373ffffffffffffffffffffffffffffffffffffffff1602179055506000600260006101000a81548173ffffffffffffffffffffffffffffffffffffffff021916908373ffffffffffffffffffffffffffffffffffffffff1602179055507f0b8eebde3ac345d640bf5d3ccc1734f2886501024815d465e71fd03a85dda41b60405160405180910390a15b5b508080610a1b90610df5565b9150506105e0565b50565b6004543414610a3457600080fd5b60008054906101000a900473ffffffffffffffffffffffffffffffffffffffff1673ffffffffffffffffffffffffffffffffffffffff163373ffffffffffffffffffffffffffffffffffffffff1603610a8c57600080fd5b33600160006101000a81548173ffffffffffffffffffffffffffffffffffffffff021916908373ffffffffffffffffffffffffffffffffffffffff16021790555060008054906101000a900473ffffffffffffffffffffffffffffffffffffffff16600260006101000a81548173ffffffffffffffffffffffffffffffffffffffff021916908373ffffffffffffffffffffffffffffffffffffffff1602179055507f3218b99de1c14624469e77f6444e712398e6c5ce12505c01367faef5fb8a7d7d60405160405180910390a1565b600360149054906101000a900460ff1681565b60045481565b60008054906101000a900473ffffffffffffffffffffffffffffffffffffffff1681565b600360009054906101000a900473ffffffffffffffffffffffffffffffffffffffff1681565b600080fd5b6000819050919050565b610bd781610bc4565b8114610be257600080fd5b50565b600081359050610bf481610bce565b92915050565b600060208284031215610c1057610c0f610bbf565b5b6000610c1e84828501610be5565b91505092915050565b600060ff82169050919050565b610c3d81610c27565b82525050565b6000602082019050610c586000830184610c34565b92915050565b600073ffffffffffffffffffffffffffffffffffffffff82169050919050565b6000610c8982610c5e565b9050919050565b610c9981610c7e565b82525050565b6000602082019050610cb46000830184610c90565b92915050565b60008115159050919050565b610ccf81610cba565b82525050565b6000602082019050610cea6000830184610cc6565b92915050565b610cf981610bc4565b82525050565b6000602082019050610d146000830184610cf0565b92915050565b600082825260208201905092915050565b7f47616d6520656e642e0000000000000000000000000000000000000000000000600082015250565b6000610d61600983610d1a565b9150610d6c82610d2b565b602082019050919050565b60006020820190508181036000830152610d9081610d54565b9050919050565b7f4e487b7100000000000000000000000000000000000000000000000000000000600052603260045260246000fd5b7f4e487b7100000000000000000000000000000000000000000000000000000000600052601160045260246000fd5b6000610e0082610c27565b915060ff8203610e1357610e12610dc6565b5b60018201905091905056fea264697066735822122073d04cca5f32e17a728c9508f2a057772ce2ee4e3a612d6668832cdb7f49bb0464736f6c634300080e0033",
  "immutableReferences": {},
  "source": "// SPDX-License-Identifier: MIT\npragma solidity ^0.8.0;\n\ncontract TicTacToe {\n    address public player1;\n    address public player2;\n    address public whoseTurn;\n    address public winner;\n    bool public gameOver;\n    uint256 public betAmount;\n    // 3 X 3 tic-tac-toe game board\n    // 0 | 1 | 2\n    // 3 | 4 | 5\n    // 6 | 7 | 8\n    uint8[9] public board;\n    uint[][] winCondition = [\n        [0,1,2],[3,4,5],[6,7,8],\n        [0,3,6],[1,4,7],[2,5,8],\n        [0,4,8],[2,4,6]  \n    ];\n\n    event gameStart();\n    event moveMade();\n    event gameEnd();\n\n\n    constructor() payable {\n        player1 = msg.sender;\n        betAmount = msg.value;\n    }\n\n    modifier playerOnly() {\n        require(msg.sender == whoseTurn);\n        _;\n    }\n\n    function join() public payable {\n        require(msg.value == betAmount);\n        require(msg.sender != player1);\n        player2 = msg.sender;\n        whoseTurn = player1;\n        emit gameStart();\n    }\n\n    function move(uint place) playerOnly public {\n        require(!gameOver, \"Game end.\");\n        if(msg.sender == player1) {\n            board[place] = 1;\n            whoseTurn = player2;\n        } else {\n            board[place] = 2;\n            whoseTurn = player1;\n        }\n        checkWinner();\n        emit moveMade();\n    }\n\n    function checkWinner() public {\n        for(uint8 i = 0; i < 8; i++) {\n            uint[] memory temp = winCondition[i];\n            if(board[temp[0]] != 0 && board[temp[0]] == board[temp[1]] && board[temp[0]] == board[temp[2]]) {\n                if(board[temp[0]] == 1) {\n                    gameOver = true;\n                    winner = player1;\n                    whoseTurn = address(0);\n                    emit gameEnd();\n                } else {\n                    gameOver = true;\n                    winner = player2;\n                    whoseTurn = address(0);\n                    emit gameEnd();\n                }\n            }\n        }\n    }\n\n    function claim() public {\n        require(gameOver);\n        require(msg.sender == winner);\n        payable(msg.sender).transfer(address(this).balance);\n    }\n}",
  "sourcePath": "/Users/shinhyunsuk/blockchain/ethereum-tic-tac-toe/contracts/TicTacToe.sol",
  "compiler": {
    "name": "solc",
    "version": "0.8.14+commit.80d49f37.Emscripten.clang"
  },
  "schemaVersion": "3.4.16",
  "updatedAt": "2024-03-12T15:59:38.171Z",
  "networkType": "ethereum",
  "devdoc": {
    "kind": "dev",
    "methods": {},
    "version": 1
  },
  "userdoc": {
    "kind": "user",
    "methods": {},
    "version": 1
  }
}